:020000040800F2
:10000000786D0020B90200089F100008710E0008EA
:100010009D100008F50900083127000800000000C5
:1000200000000000000000000000000021020008A5
:10003000750A00080000000065020008BD200008E5
:10004000D3020008D3020008D3020008D30200083C
:10005000D3020008D3020008D3020008D30200082C
:10006000D3020008D3020008D3020008D30200081C
:10007000D3020008D3020008D3020008D30200080C
:10008000D3020008D3020008D3020008D3020008FC
:10009000D3020008D3020008D3020008D3020008EC
:1000A000D3020008D3020008D3020008D3020008DC
:1000B000D3020008D3020008D3020008D3020008CC
:1000C000D3020008D3020008D3020008D3020008BC
:1000D000D302000851240008B52400081D2500089B
:1000E000D3020008D3020008D3020008D30200089C
:1000F000D3020008D3020008D3020008D30200088C
:10010000D3020008D3020008D3020008D30200087B
:10011000ED230008D3020008D302000821210008C3
:10012000D3020008D3020008D3020008D30200085B
:1001300000F002F800F065F80AA090E8000C824494
:100140008344AAF10107DA4501D100F05AF8AFF271
:10015000090EBAE80F0013F0010F18BFFB1A43F0A5
:100160000103184738720000587200000A444FF02B
:10017000000C10F8013B13F0070408BF10F8014B06
:100180001D1108BF10F8015B641E05D010F8016B4B
:10019000641E01F8016BF9D113F0080F1EBF10F8AF
:1001A000014BAD1C0C1B09D16D1E58BF01F801CBD2
:1001B000FAD505E014F8016B01F8016B6D1EF9D555
:1001C0009142D6D37047000000230024002500266A
:1001D000103A28BF78C1FBD8520728BF30C148BFAA
:1001E0000B607047642900F0FB80782900F05F8184
:1001F000732900F08483002070471FB51FBD10B520
:1002000010BD00F0B9FB1146FFF7F7FF02F0BAFC92
:1002100000F0D7FB03B4FFF7F2FF03BC02F0A9FA2A
:10022000224B19680868B0E8F00F80F30988BFF323
:100230006F8F4FF0000080F311884EF00D0E704765
:100240000000000006480068006880F3088862B675
:1002500061B6BFF34F8FBFF36F8F00DF00BF00BFEA
:1002600008ED00E0EFF30980BFF36F8F0F4B1A68C2
:1002700020E9F00F106008B54FF0500080F31188AE
:10028000BFF34F8FBFF36F8F04F0D4F84FF000002F
:1002900080F31188BDE8084019680868B0E8F00FDD
:1002A00080F30988BFF36F8F704700BF6C05002093
:1002B000EFF3058070470000094880470948004770
:1002C000FEE7FEE7FEE7FEE7FEE7FEE7FEE7FEE706
:1002D000FEE7FEE704480549054A064B7047000063
:1002E000D12000083101000878670020786D0020D7
:1002F0007869002078690020704700000FB4044935
:1003000010B503AA029800F0FFFA10BC5DF814FBC8
:10031000540500200FB41CB5084B06AA7B4469465F
:100320000090059800F0C1FA04460020694600F0EC
:10033000CFFA20461CBC5DF814FB0000B10500009C
:1003400070B5044685690068C10601D5302600E015
:100350002026C00707D070BDD4E901213046904760
:10036000206A401C20626D1EF6D570BD70B5044633
:1003700085690078C00707D170BDD4E9012120202C
:100380009047206A401C20626D1EF6D570BD70B586
:100390000C460546012A05D02878800600D5EA6972
:1003A000002302E0012305E05B1C934202D2E05CE3
:1003B0000028F9D1A869E618C01AA861286A18446B
:1003C00028622846FFF7BCFF04E0D5E9012114F8B4
:1003D000010B9047B442F8D32846FFF7C7FF70BD22
:1003E0002DE9F0410646002410687529314616A50E
:1003F00010D0AFF30080002802DA404213A507E0D6
:1004000031688A0701D512A502E0490704D511A574
:10041000012401E0AFF3008000210A2206F1240745
:1004200009E0B0FBF2FCB0FBF2F302FB1C00303041
:1004300078541846491C0028F3D123462A463046F2
:10044000BDE8F04100F0D2B9000000002D0000002E
:100450002B00000020000000F0B40D4601880905C3
:1004600002D5214C7C4402E01F4C7C440E34002118
:1004700000F1240608E002F00F071209E75D42EAE6
:1004800003721B097754491C52EA0307F3D102781F
:100490000023120704D5702D06D009B102231134B0
:1004A0002246F0BC00F0A2B901231034F8E770B581
:1004B00004460D4621461068AFF3008002462946E7
:1004C0002046BDE870400023C6E7D21D22F0070396
:1004D000D3E90023C0E70368126843F020030360F8
:1004E0000823C3610023B7E7F86E00002DE9F05F31
:1004F000894604464FF0000ADFF874B1FB44C0F8A7
:1005000020A02046E1688847002874D0252806D01E
:10051000D4E901219047206A401C2062F1E70026BF
:100520005F462046E16888472028054607DB312DD5
:1005300005D2781910F8200C08B10643F1E7B0078E
:1005400001D526F00406C4F81CA00027C4F818A0A2
:100550002A2D09D0284602F005F938B304EB8708A4
:10056000303DC8F8185019E059F8041B204604EB38
:1005700087029161E1688847012F054618D1E0693B
:10058000002820DA26F020061DE0D8F8180000EB3D
:10059000800005EB40003038C8F818002046E168BC
:1005A0008847054602F0DEF80028EED1012F0AD078
:1005B0002E2D08D12046E16888477F1C0546022F72
:1005C00046F02006C4DBA069002803DA404246F06A
:1005D0000106A061F00701D026F010066C2D0BD0AB
:1005E000682D09D04C2D39D06A2D35D0742D35D0D9
:1005F0007A2D33D016E038E0E1682F462046884750
:10060000B842054609D16C2F26D04FF48060E168CE
:10061000064320468847054604E06C2F1AD04FF465
:10062000807006430DB3A5F14100192802D820358A
:1006300046F400664A462946204626604E46FFF7A5
:10064000D1FD80B101280BD0F61D26F0070000F186
:10065000080956E74020E4E78020D8E70020D6E7E5
:1006600006F104094DE7284652E7206ABDE8F09FED
:10067000886E000030B505460B462A4613F8014B3C
:1006800012F8010B08B1A042F8D01CB1002802D02A
:100690006D1CF1E7284630BD032A40F2308010F08F
:1006A000030C00F0158011F8013BBCF1020F62440D
:1006B00098BF11F801CB00F8013B38BF11F8013B9E
:1006C000A2F1040298BF00F801CB38BF00F8013B4B
:1006D00011F0030300F02580083AC0F0088051F8BB
:1006E000043B083A51F804CBA0E80810F5E7121DC6
:1006F0005CBF51F8043B40F8043BAFF30080D207E5
:1007000024BF11F8013B11F801CB48BF11F8012BB0
:1007100024BF00F8013B00F801CB48BF00F8012BD3
:10072000704710B5203AC0F00B80B1E81850203A5D
:10073000A0E81850B1E81850A0E81850BFF4F5AF81
:100740005FEA027C24BFB1E81850A0E8185044BF0B
:1007500018C918C0BDE810405FEA827C24BF51F878
:10076000043B40F8043B08BF7047D20728BF31F86C
:10077000023B48BF11F8012B28BF20F8023B48BFBD
:1007800000F8012B704702F0FF0343EA032242EA1C
:10079000024200F0CDB84FF0000200B51346944677
:1007A0009646203922BFA0E80C50A0E80C50B1F1C9
:1007B0002001BFF4F7AF090728BFA0E80C5048BFDD
:1007C0000CC05DF804EB890028BF40F8042B08BF7B
:1007D000704748BF20F8022B11F0804F18BF00F877
:1007E000012B704770477047704770472DE9F047FD
:1007F0000D4699469246044600F124080168880691
:1008000004D5E06921F01001216000E00120A84238
:1008100001DD471B00E00027A1697A1902EB0900FE
:10082000081AA0612078C00602D42046FFF788FD90
:10083000002608E0D4E901211AF806009047206A52
:10084000401C761C20624E45F4DB2078C0060AD599
:100850002046FFF775FD06E0D4E9012130209047DE
:10086000206A401C2062381EA7F10107F4DC07E073
:10087000D4E9012118F805009047206A401C206245
:10088000281EA5F10105F3DC2046FFF76FFD207857
:10089000000602D50220BDE8F0870120FBE700003A
:1008A00001694A1C02610878704700B58FB0CDE934
:1008B00001310021059105497944CDE90310114624
:1008C0006846FFF713FE0FB000BD0000E5FFFFFF15
:1008D0000A6802F8010B0A60704710B5436913B14A
:1008E000AFF3008001E0FFF752FD012010BD127848
:1008F00000F124010A7000224A700122EDE711681C
:100900004FF0FF32E9E70000074B70B50D467B441E
:10091000FFF7CBFF0446284600F02AF810B14FF04D
:10092000FF3070BD204670BDFB2100004FF000027B
:100930000429C0F0128010F0030C3FF42EAFCCF16C
:10094000040CBCF1020F18BF00F8012BA8BF20F85F
:10095000022BA1EB0C01FFF720BF5FEAC17C24BF93
:1009600000F8012B00F8012B48BF00F8012B70475D
:10097000007B00F080007047754600F02BF8AE4613
:1009800005006946534620F00700854618B020B59B
:10099000FFF7A0FCBDE820404FF000064FF0000735
:1009A0004FF000084FF0000B21F00701AC46ACE817
:1009B000C009ACE8C009ACE8C009ACE8C0098D4684
:1009C000704710B50446AFF300802046BDE81040E4
:1009D000FFF720BC0048704718670020044CD4F88B
:1009E000040108B102F058FA642003F039FBF6E77D
:1009F00000002142FEE72DE9F0410E46074615466C
:100A00000421052000F02AF80021012001F092FEC7
:100A100080210A2001F0BAFA002405E0395D09209E
:100A200001F088FE641CE4B2B442F7D30321012034
:100A300001F080FEFF24052001F0A2F9641E14F0ED
:100A4000FF0401D04007F6D5222001F099F9287063
:100A5000212001F095F96870BDE8F08170B50C4671
:100A6000054601F08DF920EA04012846BDE87040F2
:100A700001F060BE7047000021283CD2DFE800F0A2
:100A800011131517191B1D1F212325273B3B3B3B2A
:100A900027293B3B3B2B3B3B2D2F3133353B3B3712
:100AA000390016A0704716A0704719A070471DA006
:100AB000704721A0704728A070472FA0704735A02D
:100AC000704742A0704744A0704747A070474AA0B3
:100AD00070474DA0704750A0704758A070475BA06A
:100AE00070475DA0704760A0704764A0704768A021
:100AF00070476AA070476CA0704700004F4B000021
:100B0000CAFDBEDDB0FCBDD3CAD5B4EDCEF3000046
:100B1000B4ABB8D0C6F7C9CFC3BBD3D0CAD6D6B84A
:100B200000000000C2BCC8EBD6B8CEC6CDBCCFF129
:100B3000CAA7B0DC00000000D6B8CEC6CDBCCFF14D
:100B4000CCABB8C9A1A2CCABB5ADB6F8C9FAB2BBB3
:100B5000B3C9CCD8D5F70000D6B8CEC6CDBCCFF13E
:100B6000CCABCAAAA1A2CCABBAFDB6F8C9FAB2BB4B
:100B7000B3C9CCD8D5F70000D6B8CEC6CDBCCFF11E
:100B8000CCABC2D2B6F8C9FAB2BBB3C9CCD8D5F790
:100B900000000000D6B8CEC6CDBCCFF1D5FDB3A3C2
:100BA000A3ACB5ABCCD8D5F7B5E3CCABC9D9A3A82A
:100BB000BBF2C3E6BBFDCCABD0A1A3A9B6F8C9FA82
:100BC000B2BBB3C9CCD8D5F700000000D6B8CEC6AA
:100BD000B2BBC6A5C5E40000C3BBCBD1CBF7B5BD46
:100BE000D6B8CEC600000000CCD8D5F7BACFB2A296
:100BF000CAA7B0DC00000000C9BEB3FDC4A3B0E5C5
:100C0000CAA7B0DC00000000C7E5BFD5D6B8CEC685
:100C1000BFE2CAA7B0DC0000BBBAB3E5C7F8C4DACC
:100C2000C3BBD3D0D3D0D0A7D4ADCABCCDBCB6F84B
:100C3000C9FAB2BBB3C9CDBCCFF10000B6C1D0B4C4
:100C400020464C41534820B3F6B4ED00CEB4B6A8CC
:100C5000D2E5B4EDCEF30000CEDED0A7BCC4B4E63E
:100C6000C6F7BAC500000000BCC4B4E6C6F7C9E8C0
:100C7000B6A8C4DAC8DDB4EDCEF30000BCC7CAC262
:100C8000B1BED2B3C2EBD6B8B6A8B4EDCEF3000075
:100C9000D6B8CEC6BFE2C2FA00000000B5D8D6B7BB
:100CA000B4EDCEF300000000C4A3BFE9B7B5BBD8D4
:100CB000C8B7C8CFC2EBD3D0CEF30000F0B5CC7824
:100CC000002204F00F03E40601D58C7823430C784E
:100CD0004FF00F0C14F0FF0F4FF0010E1BD0056802
:100CE0000E880EFA02F42640A64210D196000CFAA5
:100CF00006F725EA070703FA06F5CE783D43282EC6
:100D000002D0482E02D002E0446100E00461521C8F
:100D1000082AE5D305600A88FF2A1CD94468002206
:100D200002F108060EFA06F50E882E40AE420ED1EC
:100D300096000CFA06F7BC4303FA06F7CE783C435C
:100D4000282E00D14561CE78482E00D10561521C75
:100D5000082AE5D34460F0BD0246002092680A42AA
:100D600000D0012070474161704701617047000069
:100D700070B50024012000F039F93B4DD5F8100181
:100D800048B1D5F81C0160B1D5F8200188B1D5F87B
:100D90002401B0B11CE0052001F01CFED5F81001C3
:100DA00016E0052001F016FED5F81C0180B90424D8
:100DB0000EE0052001F00EFED5F8200140B9082410
:100DC00006E0052001F006FED5F8240100B90C2448
:100DD0002546002000F00AF9244E20213046FFF776
:100DE000BBFF98B104213046FFF7B6FFC8B1082118
:100DF0003046FFF7B1FFF8B110213046FFF7ACFFE6
:100E000028B30024AC422DD1002070BD052001F094
:100E1000E1FD20213046FFF79FFF0028F2D1641C3E
:100E2000F0E7052001F0D6FD04213046FFF794FFDE
:100E30000028E7D1A41CE5E7052001F0CBFD08213F
:100E40003046FFF789FF0028DCD1E41CDAE70520F3
:100E500001F0C0FD10213046FFF77EFF0028D1D100
:100E6000241DCFE7204670BD00002242001801403B
:100E7000FEE7000010B50C4C02212046FFF775FF7D
:100E800001212046FFF771FF00F03CF802212046C7
:100E9000FFF769FF00F036F801212046FFF763FFF6
:100EA000BDE8104000F02EB80014014010B5084C09
:100EB00002212046FFF757FF01212046FFF755FF8B
:100EC00000F020F82046BDE810400221FFF74DBF9A
:100ED0000014014010B50A4C02212046FFF745FFDF
:100EE00000F010F801212046FFF73FFF00F00AF85C
:100EF00001212046FFF737FFBDE8104000F002B89F
:100F0000001401400320401EC0B2FCD27047000014
:100F10007CB50446EF208DF8000001208DF801001B
:100F20001448154E0068010E8DF80210010C8DF862
:100F30000310010A8DF804108DF8050007208DF8C4
:100F4000060000258DF8075035800CE0012001F0E7
:100F500041FD3088000406D5358069460748FFF713
:100F600089FB002804D1641E2404240CEED1002047
:100F70007CBD0000480500204C050020E40F002047
:100F800010B5412826D108210846FFF767FD3D210D
:100F9000112001F0CFFB8621172001F0CBFB7F2130
:100FA000262001F0C7FB1E212D2001F0C3FB0021EC
:100FB0002C2001F0BFFB8D212A2001F0BBFB3E213C
:100FC0002B2001F0B7FB022001F020FDBDE810400E
:100FD00000F0B4BC10BD000003490A885206FCD5DD
:100FE0000149091D08807047004400402DE9F84F71
:100FF00080460121502000F061FE002403201021D2
:10100000DFF888903C264827DFF884A04FF4647509
:10101000B8F1000F1FD0B8F1010F1AD1ADF8006080
:101020008DF802008DF8031069465046FFF746FE22
:101030001848C0F89441C0F88841C0F88C41C0F805
:101040009041ADF800508DF8037069464846FFF7AF
:1010500035FEBDE8F88FADF800508DF802008DF830
:10106000031069464846FFF729FE0B48C0F8904137
:10107000C0F89C41C0F8A041C0F8A441ADF80060A0
:101080008DF8037069465046E1E70000001001400A
:10109000001801400000234200002242FEE7704792
:1010A00030B50F23C27801780125F2B1144A1268D5
:1010B00001F1E02102F4E062C2F5E062120AC2F13D
:1010C0000404D3404278A24084781C401443220197
:1010D00081F80024007800F01F018D404009800055
:1010E00000F1E020C0F8005130BD01F01F00854044
:1010F0004809800000F1E020C0F8805130BD0000B8
:101100000CED00E002490843024908607047000006
:101110000000FA050CED00E030B40021084B0A464F
:10112000002003EBC004401CC0B262548028F8D3F6
:10113000491CC9B20829F3D330BC00F025B900001E
:10114000EC05002028B1012806D10021A72000F0DD
:1011500066BA0021A620FAE7704710B558B10128F9
:1011600010D10021C02000F05AFA0021A020BDE8D3
:10117000104000F054BA0021C82000F050FA0021BD
:10118000A120F4E710BD2DE9FE4F0026171A814675
:10119000701E3546A3EB010A8846002F02DD4FF092
:1011A000010102E003D14FF00001019102E0C7F11B
:1011B00000070190BAF1000F02DD4FF0010002E0DC
:1011C00003D14FF00000009002E0C7F1000A009048
:1011D0005046574501DD3C4600E00446601C4FF098
:1011E000000B029016E008F0FF0109F0FF000C9AD6
:1011F00000F016F83E445544A64202DD0199361B24
:101200008944A54202DD00992D1B88440BF10100A1
:101210001FFA80FB02998B45E5DBBDE8FE8F0000DD
:1012200030B5CC0801F0070301259D40EBB2064D17
:1012300005EBC005C808285C0AB1184302E063EA60
:101240000000C043285530BDEC05002038B5012111
:10125000202000F033FD0324ADF8004014208DF869
:101260000300484D8DF8024069462846FFF726FDE9
:1012700003212846FFF779FD0421ADF80010102066
:101280008DF803008DF8024069462846FFF716FDE9
:1012900004212846FFF769FD04212846FFF763FD76
:1012A000C82001F097FB04212846FFF75EFD0021CE
:1012B000AE2000F0B4F90021084600F0B0F900219A
:1012C000102000F0ACF90021402000F0A8F9002126
:1012D000812000F0A4F90021CF2000F0A0F9002126
:1012E000A12000F09CF90021C82000F098F900210D
:1012F000A62000F094F90021A82000F090F9002128
:101300003F2000F08CF90021D32000F088F9002163
:10131000084600F084F90021D52000F080F9002172
:10132000802000F07CF90021D92000F078F900211C
:10133000F12000F074F90021DA2000F070F90021AA
:10134000122000F06CF90021DB2000F068F9002188
:10135000302000F064F90021202000F060F9002125
:10136000022000F05CF900218D2000F058F90021E6
:10137000142000F054F9FFF7CFFE0021AF2000F059
:101380004EF938BD0014014070B5174E002505F127
:10139000B000C0B2002100F042F90021084600F080
:1013A0003EF90021102000F03AF9FFF763FD7820A4
:1013B00000F0C8FDFFF78EFD402000F0C3FDFFF7F1
:1013C00089FD002406EBC400405D00F0BBFDFFF783
:1013D00081FD641CE4B2802CF4D3FFF767FD6D1C23
:1013E000EDB2082DD3D370BDEC0500202DE9FC4FE4
:1013F0001D46884681468B460090082B0DD0680715
:1014000000D0012000EBD50069084843C0B2203A63
:1014100002F0FF0A0026019046E00620F7E7082DBB
:1014200010D00C2D14D0102D16D0182D3FD12249DC
:101430000AEBCA0001EB80000027845DE0070FD0B3
:101440000B9A10E01D490AEB4A0001EB4000F3E75C
:101450000AEB4A001A49EDE71A4901EB0A10EBE7DB
:101460000B9830B3002241464846FFF7D9FE7F1C57
:10147000640808F10100FFB200F0FF08082FDDD377
:1014800009F1010000F0FF09082D0AD00099A9EB2D
:101490000100B0EB550F04D10BF10800894600F0B4
:1014A000FF0B761CD846F6B201988642B7D3BDE84A
:1014B000FC8F0122D7E700007C5F0008F052000893
:1014C000185500088C5900082DE9FC4F8146009002
:1014D0001E46924688468B46580700D0012000EBF6
:1014E000D60070430025019041E0102E0ED0182E3A
:1014F00010D0202E15D0402E3CD1204901EB4A209F
:101500000027445DE00711D00B9A12E01C4901EB63
:101510004A10F5E719490AEBCA00C83901EBC000C7
:10152000EEE71649803901EBCA10E9E70B9818B3CA
:10153000002241464846FFF773FE7F1C640808F10D
:101540000100FFB200F0FF08082FDBD309F1010012
:10155000009900F0FF09A9EB0100B04204D10BF1A2
:101560000800894600F0FF0B6D1CD846ADB201980B
:101570008542BAD3BDE8FC8F0122DAE7607100082A
:10158000D86C00082DE9FF4F81B0064600900F4649
:101590004FF0000A8946580700D0012000EBD30025
:1015A0000490002032E0002029E00E98002410F87A
:1015B0000A500AF101001FFA80FAE80701D00F9AD9
:1015C00002E00F9848B3002239463046FFF728FE64
:1015D0007F1C641C6D08E4B2FFB2082CEDD3761CAE
:1015E0000098F6B2311A0398814204D109F108003B
:1015F000009E00F0FF0908F101004F46C0B20399B8
:1016000080468842D1D30BF10100C0B204998346D1
:101610008842C8D305B0BDE8F08F0122D4E770B589
:101620000C460546FFF726FC782000F08BFCFFF700
:1016300051FC0CB1402000E0002000F083FCFFF7DB
:1016400049FC284600F07EFCFFF744FCBDE87040F2
:10165000FFF72CBC10B5044600F060FC00F03CFC29
:101660000120FFF7B9FC042000F061FC0220FFF725
:10167000B3FC2046FFF7B0FCE01D00F045FC4FF442
:10168000FA60FFF745FC08B1407A10BDFF2010BD9D
:1016900010B500F043FC00F01FFC0120FFF79CFC9C
:1016A000032000F044FC0120FFF796FC052000F029
:1016B0002BFC4FF4FA60FFF72BFC08B1407A10BD09
:1016C000FF2010BD70B5044600F028FC00F004FCBB
:1016D0000120FFF781FC0020FFF77EFC0020FFF7D0
:1016E0007BFCC82001F076F90F4A108800040BD566
:1016F0000E4900200B78EF2B05D14B78012B02D13E
:101700008B79072B02D01080012070BD4B798D782A
:1017100003EB0563CD7809792D0405EB012119440C
:1017200021601080002070BD4C050020E40F0020D7
:101730002DE9F0411E4614460D46074600F0EEFB2B
:1017400000F0CAFB0120FFF747FC082000F0EFFB88
:101750001B20FFF741FC3846FFF73EFC280AFFF745
:101760003BFCE8B2FFF738FC200AFFF735FCE0B29B
:10177000FFF732FC07EB1520E9B2084400EB142018
:10178000E1B20844243000F0BFFB4FF4FA60FFF7E9
:10179000BFFB58B1C27A837A417A02EB03223280CE
:1017A000427B007B02EB0020708000E0FF210846B6
:1017B000BDE8F08170B5044600F0B0FB00F08CFB92
:1017C0000120FFF709FC032000F0B1FB0F20FFF719
:1017D00003FC132000F098FB4FF47A70FFF798FB9E
:1017E000C8B1C17B827B457A01EB022189B221809D
:1017F000427CA270427D837C067D02EB0362C37C47
:101800001B0403EB06231A446260C27D2272407EF1
:10181000607255B100E0FF252846FFF72DF901461B
:101820000AA0FEF76BFD284670BD0AA0FEF766FD14
:10183000A1780EA0FEF762FD10A06168FEF75EFDC4
:10184000617A4FF4165041430FA0EAE70D0A257361
:10185000000000000D0AC4A3BFE9D7EEB4F3D6B868
:10186000CEC6C8DDC1BF3D25640000000D0AB6D458
:10187000B1C8B5C8BCB63D25640000000D0AB5D896
:10188000D6B73D25780000000D0AB2A8CCD8C2CA50
:101890003D25640008B50121042000F00FFA022064
:1018A000ADF8000028208DF8030003208DF8020019
:1018B00069460248FFF702FA08BD0000000801402F
:1018C00070B5054600F02AFB00F006FB0120FFF78B
:1018D00083FB032000F02BFB1D20FFF77DFB212065
:1018E00000F012FB4FF4FA60FFF712FB38B1C17A37
:1018F000827A447A01EB0221298054B100E0FF246E
:101900002046FFF7B9F8014605A0FEF7F7FC204690
:1019100070BDC17A807A01EB002103A0F5E70000D9
:101920000D0A2573000000000D0AD3D0D0A7D6B849
:10193000CEC6B8F6CAFD3D256400000010B51420DF
:1019400000F01EFA800705D10321BDE810401420E5
:1019500000F01CBB10BD70B50646082188B00024FD
:101960000846FFF77BF800210D2000F0E3FE802100
:101970000E20FFF773F893208DF8040020208DF8D7
:10198000050006A801AB0090022219460C2000F0C9
:1019900040F805000DD1002101A8425C7254425C60
:1019A000491C5440C9B20429F7D3405CA04200D07E
:1019B000022580210E2000F0E9FA08B0284670BD0B
:1019C00030B587B08DF804008DF80510002001A90E
:1019D000145C0D18401CC0B2AC700628F8D300206F
:1019E0000C181A5C401CC0B222720628F8D306A854
:1019F00000900B460C220E2000F00BF8040004D1DE
:101A0000082000F0BDF9000700D4022407B02046EA
:101A100030BD2DE9FF5F0025DDF838B017468A4656
:101A200081464FF002082E460C2805D0B9F10E0F62
:101A300004D11225102601E07725302645F08001DB
:101A4000022000F077FE80210420FFF707F8002134
:101A5000012000F06FFE80210A2000F097FA002498
:101A600005E01AF80410092000F064FE641CBC4272
:101A7000F7D34946012000F05DFEB9F10C0F03D108
:101A800080210D2000F082FA4FF47A74042000F0D7
:101A900077F90746641E03D0F80701D13742F5D025
:101AA00080210D20FEF7DAFF3CB1062000F068F936
:101AB00010F01B0F0DD04FF0020880210C2000F019
:101AC00065FA0021012000F035FE04B04046BDE873
:101AD000F09F2F404FF00008F80701D04FF00108A9
:101AE000B9F10C0FE9D10A2000F04AF905460C20A3
:101AF00000F046F910F007004FEAC50101D008399F
:101B00000144CBF8001025B1122D00D91225002474
:101B100008E00125FBE7092000F032F901460398AF
:101B20000155641CAC42F6D3C7E730B50C460546F8
:101B3000082187B00846FEF791FF07210D2000F02D
:101B4000F9FD0321142000F021FA06A801AB009052
:101B50008DF80450012219460C20FFF75AFF10B9E6
:101B60000699102902D0022007B030BD9DF804105C
:101B700021709DF805106170F6E7000010B51E4C4D
:101B800001212046FFF7F1F8012000F03FFF01217D
:101B90002046FFF7E8F8012000F038FF0121204639
:101BA000FFF7E3F8012000F031FF0F21012000F0E2
:101BB000C1FD012000F0E4F8C006FAD4012000F0D5
:101BC00025FF3D21112000F0B5FD1E212D2000F044
:101BD000B1FD00212C2000F0ADFD8D212A2000F068
:101BE000A9FD3E212B2000F0A5FD4021BDE81040BD
:101BF000152000F09FBD0000000C014010B588B01A
:101C000093218DF8041070218DF8051000218DF8B6
:101C10000A1001AB5C18425CA270445C9DF80A207B
:101C2000491C6240C9B28DF80A200429F2D303F19D
:101C3000080208211846FEF7DEFE08210846FEF7D6
:101C40000DFF06A801AB0090092219460C20FFF7F2
:101C5000E0FE10B90699182900D0022008B010BD86
:101C600010B500F0A7F801210648FFF77EF8102113
:101C70000548FFF77AF8FFF781FFBDE810404120E3
:101C8000FFF77EB9000C014000080140044A00291A
:101C9000D16901D0014300E08143D1617047000068
:101CA00000100240044A0029116901D0014300E0FC
:101CB000814311617047000000100240044A00296E
:101CC000916901D0014300E08143916170470000B8
:101CD00000100240044A0029D16801D0014300E00D
:101CE0008143D160704700000010024030B5204AA7
:101CF0005168204B11F00C0103D0042901D00829B0
:101D000001D0036012E05168536801F470114FF084
:101D1000020413F4803F04EB914102D053689B030B
:101D200001D5154B00E0134B5943016051680F2357
:101D300003EA1111114B5C5C0168E1404160546899
:101D4000072505EA14241C5D21FA04F48460546814
:101D500005EAD4241B5DD940C1605268032303EA1D
:101D60009232064B1B1F9A5CB1FBF2F1016130BD50
:101D70000010024000127A0000093D005C050020BE
:101D800070B57E2101EA4000094D40F08004102129
:101D90002846FEF7E8FF204600F076F800F04EF8FF
:101DA000044610212846FEF7E0FF204670BD0000E3
:101DB00000080140F8B501210C20FFF77FFF102536
:101DC000ADF800501B4E8DF8035003248DF80240EF
:101DD00069463046FEF772FF2020ADF800008DF80E
:101DE00003508DF8024069463046FEF767FF4020F9
:101DF000ADF8000004208DF803008DF8024069461C
:101E00003046FEF75BFF8020ADF800008DF80350F0
:101E10008DF8024069463046FEF750FF0120ADF8CC
:101E200000008DF803508DF8024069460248FEF725
:101E300045FFF8BD00080140000C014070B5114E8F
:101E400000256006040E20213046FEF78CFF14208A
:101E500000F0DCFD40213046FEF77EFF012801D175
:101E600044F00104142000F0D1FD20213046FEF79B
:101E70007CFF142000F0CAFD6D1CEDB2082DE0D3EC
:101E8000204670BD0008014070B5124E0546002482
:101E900028064FF08001304602D5FEF766FF01E0CC
:101EA000FEF761FF142000F0B1FD20213046FEF75F
:101EB0005AFF142000F0AAFD20213046FEF755FFFE
:101EC000142000F0A3FD6806641C050EE4B2082C83
:101ED000DED370BD0008014010B50A4C2068000E2A
:101EE000FFF77AF82068C0F30740FFF775F82088FD
:101EF000C0F30720FFF770F82078BDE81040FFF727
:101F00006BB800004805002010B50446000AFFF732
:101F100063F8E0B2BDE81040FFF75EB810B5EF20FF
:101F2000FFF75AF8BDE810400120FFF755B810B58B
:101F30000446C0F30720FFF74FF8E0B2BDE81040B9
:101F4000FFF74AB870B5104E0546002428064FF03A
:101F50000201304602D5FEF708FF01E0FEF703FF5D
:101F6000FEF7D0FF01213046FEF7FFFEFEF7CAFF65
:101F700001213046FEF7F7FE6806641C050EE4B248
:101F8000082CE3D370BD00000014014070B50C466E
:101F90000546FFF7F5FE40EA04012846BDE870401B
:101FA00000F0C8BB0CB500222648009201920168DF
:101FB00041F4803101604FF4A063016801F4003105
:101FC00001910099491C0091019911B90099994218
:101FD000F3D10168890333D5012101911A490A68B7
:101FE00042F010020A600A6822F003020A600A68DE
:101FF00042F002020A604168416041684160416804
:1020000041F480614160416821F47C114160416884
:1020100041F4E8114160016841F08071016001689C
:102020008901FCD5416821F003014160416841F01C
:10203000020141604168C1F381010229FAD10CBD5E
:1020400001920CBD00100240002002403EB500216C
:102050006C46425C120904F81120092A01D9373272
:1020600000E0303204F81120425C04EB410302F03E
:102070000F025A70092A01D9373200E03032491C68
:10208000C9B25A700429E4D300208DF80800214613
:1020900001A0FEF733F93EBD49443E3E3E25730D97
:1020A0000A0000004FF0E0210428086903D020F066
:1020B00004000861704740F00400FAE710B502F030
:1020C00035FE012803D0BDE8104002F023BB10BD4F
:1020D0000F4810B5016841F00101016041680D4AE7
:1020E0001140416001680C4A11400160016821F40F
:1020F00080210160416821F4FE0141604FF41F011D
:102100008160FFF74FFF05494FF00060086010BD88
:10211000001002400000FFF8FFFFF6FE08ED00E0AF
:1021200010B50E4C0121204600F0B4F8002813D061
:102130000B49088840F4004008800A49088840F4A8
:10214000004008800121204600F08CF82046BDE8C0
:102150001040002100F089B810BD000000140040BC
:10216000440500204C0500207FB50D4604460121A2
:102170002020FFF78BFDADF80440ADF8005000249F
:10218000104DADF80640ADF802406946284600F013
:10219000DFF801221146284600F088F80121284680
:1021A00000F063F837208DF80C008DF80D40022008
:1021B0008DF80E0001208DF80F0003A8FEF770FFC8
:1021C0007FBD00000014004030B5012189B04803F4
:1021D000FFF774FD01211020FFF770FD4020ADF8DE
:1021E0001C0018208DF81F0003208DF81E0007A981
:1021F0001A48FEF763FDC720ADF8140041F61F40F2
:102200000024ADF81000164DADF81640ADF81240A0
:102210008DF8184004A9284600F09AF86020ADF81F
:1022200000000120ADF802000002ADF80C00ADF88E
:102230000640ADF808406946284600F03FF80821FE
:10224000284600F07BF80121284600F00EF8012115
:10225000284600F014F809B030BD0000001001401D
:1022600000340140C943018270470029018802D02F
:1022700041F0010101E021F00101018070470029D6
:1022800030F8441F02D041F4004101E0C1F30E01D7
:102290000180704702460020138A92890B4202EAAD
:1022A000010202D0002A00D001207047002A828952
:1022B00001D00A4300E08A438281704730B5028C26
:1022C00022F001020284028C8388048B22F0020235
:1022D00024F073050C882C430D8915434A882A4342
:1022E000114DA8420BD0114DA84208D0104DA84264
:1022F00005D0104DA84202D00F4DA8420DD122F0BA
:1023000008054A8923F440732A4322F004058A8889
:102310002A438D891D43CB892B4383800483C9883D
:102320008186028430BD0000002C01400034014051
:10233000004001400044014000480140028B22F06F
:1023400008020A4302837047818670478184704780
:1023500030B502881B4C1C4DA0420DD0A8420BD0BA
:10236000B0F1804F08D0194B984205D0184B9842D5
:1023700002D0184B984203D122F070034A881A43C6
:10238000154B984206D0154B984203D022F4407367
:10239000CA881A4302808A8882850A880285A042F8
:1023A0000AD0A84208D00E4A904205D00D4A904269
:1023B00002D00D4A904201D1097A01860121818221
:1023C00030BD0000002C01400034014000040040FA
:1023D00000080040000C00400010004000140040C5
:1023E00000400140004401400048014010B5154C38
:1023F00040F22551204600F009F900281ED0204661
:1024000000F092F9114A104BD1785854491CC8B2C7
:10241000D070042812D1187855280FD15878662822
:102420000CD1D878772809D10020D0709878012174
:10243000112804D0222801D11170517010BD1170E3
:10244000917010BD004C00406C0A00204005002037
:1024500070B5154C40F22551204600F0D7F8002801
:102460000ED0204600F060F9104AC1B21088030473
:1024700006D444044FF0000306D50A2901D0138086
:1024800070BD40F400400DE00D2909D0C0F30D04EB
:10249000074D401C80B229551080C728EFD870BD69
:1024A00040F48040108070BD00380140520500208B
:1024B0000413002070B5154C40F22551204600F061
:1024C000A5F800281CD0204600F02EF9104CC5B20B
:1024D0002088000414D42088B0F5C87F11D20D4E96
:1024E00000213046FFF732FF208818B9012130461D
:1024F000FFF7BBFE208808490144401C20800D7076
:1025000070BD208840F40040208070BD0044004031
:102510004C05002000140040E40F002070B5154C5D
:1025200040F22551204600F071F800281CD02046CA
:1025300000F0FAF8104CC5B22088000414D42088AA
:10254000B0F5167F11D20D4E00213046FFF7FEFE8A
:10255000208818B901213046FFF787FE20880849F6
:102560000144401C20800D7070BD208840F4004064
:10257000208070BD00480040440500200014004049
:10258000340B00200029818902D041F4005101E080
:1025900021F4005181817047174910B588420AD152
:1025A00001218C032046FFF795FB2046BDE8104033
:1025B0000021FFF78FBB1149884202D101214C0451
:1025C00010E00F49884202D101218C040AE00D4934
:1025D000884202D10121CC0404E00B4988420AD18F
:1025E00001210C052046FFF75DFB2046BDE81040A9
:1025F0000021FFF757BB10BD0038014000440040E8
:1026000000480040004C00400050004070B501F010
:102610001F0501260024C1F3421306FA05F2012B1F
:102620000FD0022B0FD0838A4FEA1121008813426A
:1026300006FA01F600EA060001D000B101242046A6
:1026400070BD8389F0E7038AEEE710B5C1F342134A
:1026500001F01F040121A140012B07D0022B07D05C
:102660001430002A026805D00A4304E00C30F8E771
:102670001030F6E78A43026010BD000030B5044612
:10268000008A85B00D464CF6FF710840E988014389
:102690002182A0894EF6F3110840A9882A891143A6
:1026A0006A8902431143A181A08A4FF6FF41084085
:1026B000A9890143A1826846FFF718FB19488442A3
:1026C00001D1039800E00298A189090400EBC00140
:1026D00001EB0010296801D5490000E08900B0FB3A
:1026E000F1F06422B0FBF2F109010B096FF018055B
:1026F0006B4300EB8300A3891D044FF0320306D522
:1027000003EBC000B0FBF2F000F0070005E003EBC4
:102710000010B0FBF2F000F00F000843208105B07C
:1027200030BD0000003801408088C0F308007047C9
:10273000FEE7000070B50D467E2101EA4004084E18
:1027400010213046FEF70FFB2046FFF79DFB284681
:10275000FFF79AFB3046BDE870401021FEF705BB3D
:102760000008014030380A2801D2012070470020BB
:1027700070477047104EDFF84490114C114F4FF0E6
:10278000010800252078012811D13078012803D0D4
:102790003878012809D00AE025703570FEF7BCFCB6
:1027A00089F8018000F0D2FA01E025703D700A201E
:1027B00001F056FCE6E70000420500200000002082
:1027C0004005002041050020A4B00027602107A893
:1027D000FDF7E1FF1822674901A8FDF7A2FF0020DD
:1027E00065A11F902090D1E90021CDE92121DFF8DA
:1027F00090A1DFF890B14FF00108634C0020C4F8BD
:102800009401C82004F5CA7401F02AFCC4F80080C1
:102810004FF4487001F024FCFEF7AAFA8BF8000090
:102820000828EAD00C28E8D00D28E6D00F28E4D0FC
:102830001028E2D00028E0D0002401257F1C0646A5
:10284000012F01D1FEF768FC9BF8000000F06AF947
:102850001FA93944F32201F8010C07EB870102EBB1
:10286000810101F0FF0C0246102322216046CDF8C1
:102870000080FEF7BBFDFEF787FD05EB450001A9D3
:1028800001EB80095D4607E0CAF8A081FEF770FA07
:102890002870D9F80800804728788642F4D00026AE
:1028A000D146CAF8A061062FA7D1002021AA1FA9EE
:1028B00030230F5C12F800C0674500D1641C0B5434
:1028C000401C0628F5D3062C2CD0FEF725FC00F082
:1028D000B9FA4FF4967000F07DF8C9F8A0614FF492
:1028E0007A7009F5D07400F075F8C4F8008040F6ED
:1028F000B83000F06FF826600027FEF70DFC02F0FC
:10290000BDFCC82000F066F802F01EFA0246032063
:10291000009000230221A86A02F068FCC82001F0A0
:102920009FFB6AE7474685F80180FEF7F5FB00F05C
:102930000DFA4FF4967000F04DF8C9F8A071C82058
:1029400009F5D07400F046F82660C82000F042F87F
:102950002760C82000F03EF82660642000F03AF8B6
:102960000221686A01F0B2FD40F2DC5001F078FB10
:10297000C2E70000D8520008313233343536000047
:1029800000802142000000200000234210B50420F6
:10299000FFF788FB0C480D490D4A0068B0FBF1F3C6
:1029A000B0FBF1F14FF47A70414313700120508075
:1029B0004FF0E020026942F00202026141610169C8
:1029C00041F00101016110BD2C05002040420F00C3
:1029D0004E05002070B5044602F0A8F901280CD07D
:1029E000094D6888844203D3B4FBF0F001F038FB52
:1029F0006888B4FBF0F100FB11444FF47A70604337
:102A0000BDE8704000F002B84E05002070B54FF0F0
:102A1000E02500216C69094AAB6912785043AA6924
:102A20009A42FCD002D2A3EB020302E0A4EB02061E
:102A30003344194413468142F1D370BD4E05002042
:102A40001FB5204D204E214C2088000435D520494B
:102A500020A0FDF753FC1E4A23A16846FDF75AFC4F
:102A6000694622A0FDF74AFC22A16846FDF702FE56
:102A700018B120212846FEF776F91FA16846FDF718
:102A8000F9FD18B120212846FEF76FF91BA1684611
:102A9000FDF7F0FD18B1B9213046FFF755FC19A13B
:102AA0006846FDF7E7FD18B1C3213046FFF74CFC3F
:102AB0000A2001F0D5FA002020800A2001F0D0FA87
:102AC000C2E70000000C0140000400404405002063
:102AD000340B00205553415254335F52585F4255D6
:102AE000463D25730D0A000025730000613D2573E6
:102AF000000000006F6E00006F6666006F70656E0C
:102B000000000000636C6F736500000004490A88D0
:102B10005206FCD5024AC1B2121D11807047000056
:102B2000003801400146002011290BD2DFE801F0F6
:102B30000A090B0D0F11131517191B1D1F21232532
:102B400027003120704732207047332070474120E2
:102B50007047342070473520704736207047422038
:102B6000704737207047382070473920704743201E
:102B700070472A2070473020704723207047442038
:102B8000704700001CB5FFF701FF4FF4E134204609
:102B900001F018F84FF4A060FEF7B4FA4FF440705B
:102BA000FEF7B0FA4FF4165000F0B6FFFFF70CFB3B
:102BB000204601F057F8FEF76DFE6420FFF70AFF8C
:102BC0004FF4C87402E02046FFF704FF1848FEF7F0
:102BD00079FD0028F7D11748FEF772FE154C241F27
:102BE000A0701548FEF7E6FDA070FEF72FFB002051
:102BF000FEF7A8FA0020FEF7B0FAC820FFF7EAFEB9
:102C0000FFF72EF800F022F802F038FBFEF7B0F8DC
:102C100004F108010120CDE900010023802207A171
:102C2000094802F057F801F0B3FB00201CBD00007A
:102C30004805002004000020E00500207374617244
:102C4000745F7461736B00000D3A00082DE9FC415C
:102C500000242B4F01264FF49675CDE90076002114
:102C6000402380220846FEF78DFCFEF78DFB2846A8
:102C7000FFF7B0FE01223A211E20FEF7D1FAFEF73F
:102C800083FB2846FFF7A6FE01223A213720FEF7F4
:102C9000C7FAFEF779FB2846FFF79CFE01223A218E
:102CA0004B20FEF7BDFAFEF76FFB2846FFF792FEBA
:102CB00001223A215F20FEF7B3FAFEF765FB2846B2
:102CC000FFF788FE00223A211E20FEF7A9FA002213
:102CD0003A213720FEF7A4FA00223A214B20FEF7D2
:102CE0009FFA00223A215F20FEF79AFAFEF74CFB8A
:102CF000641C032CB1DBBDE8FC41FEF70DBA0000FB
:102D00002C01002008B50B4C4FF0FF35606A68B10C
:102D1000002301220321009501F030FC014606A0AA
:102D2000FDF7ECFAFEF7F8F900F010F80A2001F0D0
:102D300097F9EBE700000020CAC2BCFEB1EAD6BE9C
:102D4000D7E9B5C4D6B53A25640D0A0038B50124D3
:102D5000102309221E2114200094FEF7B5FB102336
:102D60000A221E2128200094FEF7AEFB10230B221E
:102D70001E213C200094FEF7A7FB10230C221E21ED
:102D800050200094FEF7A0FB10230D221E2164208A
:102D90000094FEF799FBBDE83840FEF7F5BA38B568
:102DA000012400221023114614200094FEF78CFB0E
:102DB00010230122002128200094FEF785FB102318
:102DC000022200213C200094FEF77EFB1023032208
:102DD000002150200094FEF777FB102304220021ED
:102DE00064200094FEF770FB32231522194605205B
:102DF0000094FEF7C8F932232922194619200094BD
:102E0000FEF7C1F932233D2219462D200094FEF72A
:102E1000BAF932235122194641200094FEF7B3F942
:102E200032236522194655200094FEF7ACF932236F
:102E30007922194669200094FEF7A5F9BDE83840CB
:102E4000FEF7A2BA38B5012410230E221E21142049
:102E50000094FEF739FB10230F221E212820009436
:102E6000FEF732FB10231A461E213C200094FEF789
:102E70002BFB102311221E2150200094FEF724FB6F
:102E8000102312221E2164200094FEF71DFBBDE8D2
:102E90003840FEF779BA000008B5FEF7F9FB0028C4
:102EA00011D10120FEF7D6FB00280CD106486B4655
:102EB000002102880120FEF73BFC002803D14FF4DB
:102EC000C870FFF787FD08BDE00500202DE9F0413F
:102ED000184E0F460446F5683068001D00F02AFFC2
:102EE00038B9306890F82C1001208840316981434E
:102EF0003161601C07D137B13168BDE8F0410E483F
:102F0000091D00F05BBF30682C44AC42446031685E
:102F100005D2B06BBDE8F041091D00F037BF706B02
:102F2000091D00F033FFB06A844200D2B462BDE8EC
:102F3000F08100006C050020DC1600202DE9F04136
:102F4000054600F047FF2D4EB068401CB060306869
:102F50002B4F10B1706930B32BE03560B068012899
:102F600027D1002404EB840007EB800000F000FF71
:102F7000641C202CF6D3234800F0FAFE21481430BC
:102F800000F0F6FE1F48283000F0F2FE1D483C30ED
:102F900000F0EEFE1B48503000F0EAFE1948706366
:102FA0001430B06305E03068E96AC06A884200D82E
:102FB0003560706A0121401C70626864E86A326999
:102FC00081401143316100EB800007EB8000291D37
:102FD00000F0F4FE00F03AFF706900280CD0306871
:102FE000E96AC06A884207D207494FF080500860FA
:102FF000BFF34F8FBFF36F8FBDE8F0816C050020EA
:103000000C1400208C16002004ED00E010B500F038
:10301000E1FE0E4C2068A0B90D4800F0A9FE0C4856
:10302000143000F0A5FE0A48E06014302061002250
:103030001021052001F084FB206010B105A100F0F3
:10304000DBFFBDE8104000F001BF0000A805002034
:10305000F0160020546D72510000000070B5124E41
:10306000124D1CE001F0DEF9306820B1002401F0BF
:10307000D7FFA4B901E00124F9E700F0ABFEF06846
:10308000C468201D00F056FEA868401EA86068684D
:10309000401E686000F0DAFE204600F052F86868D2
:1030A0000028DFD170BD0000C81600206C0500208C
:1030B00030B4026C0B46002A0BD0C1681144C160C9
:1030C0004468A14201D30168C16030BC1846FDF7D5
:1030D000E3BA30BC70472DE9F041856B17460446D2
:1030E0000026026C82B1C7B1E068FDF7D5FAE1684D
:1030F000206C091AE1602268914202D26168081AC4
:10310000E060022F16D017E02068A8B9606801F0CF
:1031100095FE0646002060600EE0A068FDF7BCFA50
:10312000216CA0680844A0606168884204D32068CC
:10313000A06001E005B16D1E6D1CA5633046BDE8C1
:10314000F08110B50446006B00F0B2FE2046BDE8E9
:10315000104000F0ADBE000010484FF4A0414207FF
:1031600006D0C01D0D4920F00700411AC1F5A0414D
:103170000B4A00230144C2E900030839103A21F048
:10318000070111604B600B600B1AC0E900139360DC
:103190004FF000405360D0607047000018170020C7
:1031A000CC050020074E4FF08054074DFFF756FF27
:1031B00030680128FAD92C60BFF34F8FBFF36F8FAF
:1031C000F4E700000C14002004ED00E02DE9F047C6
:1031D000DDE909840E461746824691009946089D0E
:1031E000A522206BFDF7CFFA6FF00301206B01EBF6
:1031F0008701084420F00707780705D040F22B32FA
:1032000019A11EA0FDF77AF800202218315C82F87F
:103210003410315C11B1401C1028F6D3002684F81C
:103220004360202D00D31F25E562C4E91356201DFD
:1032300000F0A9FD04F1180000F0A5FD2461C5F11E
:1032400020006462A061666584F858604A46514671
:10325000384600F00DFB2060B8F1000F01D0C8F82F
:103260000040BDE8F08700002E2E5C467265655276
:10327000544F535C7461736B732E63004572726FAD
:10328000723A25732C25640D0A00000030B51149EF
:1032900000E011460A688242FBD34B685C18844206
:1032A00003D1406818444860084643681C1894429B
:1032B00009D1084C103C2468A24209D052681A4433
:1032C00042600A6812680260814200D0086030BD26
:1032D0000460F9E7CC05002070B5002441600B4D77
:1032E0000061914206D8D11A8269914206D2011D2D
:1032F000286907E09A4203D2994201D3012403E0EE
:10330000011DE86800F042FD204670BDA8050020C0
:1033100010B5044600F05EFDA06B20B1002400F063
:1033200095FD204610BD0124F9E700002DE9F34189
:1033300000980F460026846C2CB940F6CE1216A1D8
:103340001AA0FCF7DBFFA06BE16B884205D340F6C7
:10335000CF1211A115A0FCF7D1FFA06BE16B884241
:103360000CD294F945503A4669462046FFF7B3FE21
:103370000646681C05D06D1C84F845503046BDE8F3
:10338000FC81606A0028F9D004F1240001F0B0FD4E
:103390000028F3D00126F1E72E2E5C4672656552B7
:1033A000544F535C71756575652E63004572726F7D
:1033B000723A25732C25640D0A000000F8B5054605
:1033C00014480E46C068C068C468201D00F0B2FCF6
:1033D000E069012817D1A0692B46411932462046E1
:1033E000FFF77AFF78B100200346014600902A4695
:1033F000204601F0FBFE30B907494FF4027201F19B
:103400001800FCF77BFF616A01B02046BDE8F04080
:1034100008470000A80500205051000870B586B08C
:103420002F4E53E00198002806DADDE90301029AE5
:1034300090470198002849DB039C606910B1201D6A
:1034400000F078FC05A800F0A7F8054601980A28C6
:103450003CD2DFE800F00505053B273805053B2792
:103460000298A169034601442A462046FFF734FF2B
:1034700000282BD0616A20468847E069012825D1C1
:10348000002000900298A1690023421819462046A6
:1034900001F0ACFED0B940F2213212A117A0FCF726
:1034A0002DFF13E00298A06128B94FF44E720DA1D0
:1034B00012A0FCF723FFA0692B4641191A462046AB
:1034C000FFF70AFF02E0204600F0F2FC00231A4654
:1034D00001A9306801F070F90028A3D106B070BDD1
:1034E000A80500202E2E5C4672656552544F535C31
:1034F00074696D6572732E63000000004572726F0F
:10350000723A25732C25640D0A000000F8B50D46AB
:10351000064600F087FF684600F03EF80446009833
:1035200010B101F07DFDF8BD1148ADB10169096828
:10353000D9B10025311B2A46006800F06FFD01F06B
:103540006FFD0028EFD10B494FF080500860BFF3AA
:103550004F8FBFF36F8FF8BDA642EBD801F060FD2F
:1035600021463046FFF72AFFF8BD0125E2E70000BB
:10357000A805002004ED00E00648416B096829B168
:10358000416BC968C9684968816270474FF0FF3173
:10359000FAE700006C05002070B5054601F0D4FB89
:1035A000064E0446B068844203D200F009F80120B8
:1035B00000E0002028602046B46070BDA80500200F
:1035C000F8B5184E26E0C068C4680568201D00F0F4
:1035D000B1FB616A20468847E06901281AD1A069D9
:1035E0002844A84206D924616060211DF06800F0DB
:1035F000CDFB0FE000200346014600902A462046FE
:1036000001F0F4FD30B9084940F2923201F118009E
:10361000FCF774FEF06801680029D4D13169C6E96D
:103620000310F8BDA8050020505100080848406864
:10363000401C04D0F42207A111A0FCF75FFE50202B
:1036400080F31188BFF34F8FBFF36F8FFEE7000049
:10365000D40500202E2E5C4672656552544F535C93
:10366000706F727461626C655C525644535C415277
:103670004D5F434D335C706F72742E630000000029
:103680004572726F723A25732C25640D0A00000092
:103690000346002012B1994302D070470B42FCD080
:1036A00001207047084CE068016839B1002139B148
:1036B0000020FFF72BFFFFF7B1FEF4E70121F6E74B
:1036C000C0680068F5E70000A80500202DE9F0417A
:1036D000044600F07FFB94F9455004F1240610E005
:1036E000A06C20B100212046FFF720FE04E0606AB4
:1036F00048B1304601F0FCFB08B100F04DFD6D1EF5
:103700006DB2002DECDC4FF0FF3684F8456000F020
:103710009DFB00F05FFB94F9445004F1100709E0B1
:10372000206948B1384601F0E3FB08B100F034FDF0
:103730006D1E6DB2002DF3DC84F84460BDE8F041ED
:1037400000F084BB2DE9F0410546002600F06AFE3A
:10375000324F386808B9FFF7FFFCF86805424FD1CF
:10376000002D4DD0083568070BD005F00700C0F1DB
:1037700008000544680704D0BF2229A132A0FCF745
:10378000BDFD002D3CD07868854239D823491031E1
:103790000846046801E0214604466068A84202D257
:1037A00020680028F7D13868B846844228D00E68CF
:1037B0002068086060680836401B10280ED9671919
:1037C000780704D0EC2216A11FA0FCF797FD6068D3
:1037D000401B786038466560FFF758FD6168D8F88F
:1037E00004004246401AC8F80400D8F8083098424D
:1037F00000D29060D8F80C0001430020C4E9000119
:1038000001F00EFC700705D04FF4967204A10EA0D3
:10381000FCF774FD3046BDE8F0810000BC050020D7
:103820002E2E5C4672656552544F535C706F7274F5
:1038300061626C655C4D656D4D616E675C6865616C
:10384000705F342E630000004572726F723A257308
:103850002C25640D0A0000000449086818B10868A6
:10386000026D521C02650868704700006C0500205C
:1038700010B5031F4FF080741C601B1F21F0010165
:103880001960191F024B0B60143940380A6010BDD3
:103890002D36000888B04AA04C4D046849A0002687
:1038A000D0E90010CDE903104FF001081E2000F010
:1038B000D7FB06A95220FEF738F90028F6D102A856
:1038C000FEF749F810B102A8FEF7C0FB02A8FEF708
:1038D00095F900286DD09DF80B109DF80A00CDE9F0
:1038E00000019DF809309DF8082039A105A8FCF7D2
:1038F00011FD05A93BA0FCF701FD9DF80800E1B210
:10390000884234D19DF80900C4F3072188422ED1A2
:103910009DF80A00C4F30741884228D19DF80B00A6
:10392000210E884223D130A0FCF7E8FC2FA135A05E
:10393000FCF7E4FC4746C5F8A081C82000F090FBE6
:10394000C5F8A061C82000F08BFBC5F8A071C820A5
:1039500000F086FBC5F8A061C82000F081FB2A4872
:103960000121406A00F0B2FD40F2DC5017E0FDF7A3
:10397000D3FBFFF767FA4FF49677384600F070FBF9
:10398000C5F8A0614FF47A7000F06AFBC5F8A08119
:1039900040F6B83000F064FBC5F8A061384600F08E
:1039A0005FFBFDF7B9FB01F069FCC82000F058FB94
:1039B0007CE702AB03AA03216020FEF701F875E75C
:1039C000A5A5A5A5FFFFFFFFFFFF00000080214286
:1039D000253032582530325825303258253032586B
:1039E00000000000257300000A000000CAB6B1F014
:1039F000B3C9B9A6A3ACC4FACAC7BACFB7A8D3C3D0
:103A0000BBA7000025730A00000000201CB500F0D1
:103A1000E1F900F04DFD254C002304F10C0160623A
:103A20000220CDE90001802221A1244801F052F9B1
:103A300004F110010320CDE900010023802220A120
:103A4000224801F047F904F114010520CDE90001F5
:103A5000002380221EA1214801F03CF904F1180145
:103A60000620CDE90001002380221DA1204801F09D
:103A700031F904F120010720CDE900010023802263
:103A80001CA1204801F026F904F11C010820CDE911
:103A90000001002380221CA11E4801F01BF9A06830
:103AA00000F014FBBDE81C4000F0D0B9000000207D
:103AB00072633532325F7461736B000095380008B1
:103AC000627574746F6E5F7461736B00C927000850
:103AD0006F6C65645F7461736B000000052D0008F6
:103AE000626C7565746F6F74685F7461736B0000EE
:103AF00075270008657370383236365F7461736BF2
:103B000000000000412A000841533630385F7461DC
:103B1000736B0000DD09000870B5054686B0012111
:103B20001020FEF7CBF80121C804FEF7AFF84FF4E0
:103B30008060ADF8100003248DF8124018201F4E4D
:103B40008DF8130004A93046FDF7B8F8F014ADF86D
:103B5000100004208DF8130004A93046FDF7AEF8DC
:103B6000174E3046FEF718FD0020ADF80400ADF802
:103B70000600ADF80800ADF80C000C20ADF80A0006
:103B8000009569463046FEF779FD34208DF8140023
:103B90008DF815408DF8164001208DF8170005A806
:103BA000FDF77EFA012240F225513046FEF74DFD29
:103BB00001213046FEF7E6FC06B070BD0010014062
:103BC000004C004070B5054686B0012144F2040067
:103BD000FEF774F84FF40070ADF8100003248DF870
:103BE000124018201D4E8DF8130004A93046FDF731
:103BF00065F83015ADF8100004208DF8130004A905
:103C00003046FDF75BF825208DF814008DF815403F
:103C10008DF8164001208DF8170005A8FDF740FA31
:103C20000020ADF80400ADF80600ADF80800ADF8CE
:103C30000C000C200A4CADF80A000095694620469D
:103C4000FEF71CFD012240F225512046FEF7FDFC47
:103C500001212046FEF796FC06B070BD0008014029
:103C6000003801402DE9F041804686B00121042052
:103C7000FEF724F801214804FEF708F8294E3046E3
:103C8000FEF78AFC0424ADF8104003258DF812508D
:103C90001820254F8DF8130004A93846FDF70EF8BB
:103CA0000820ADF810008DF8134004A93846FDF740
:103CB00005F80024ADF808400C20ADF80440ADF83C
:103CC0000A00CDF80080ADF80640ADF80C4069461A
:103CD0003046FEF7D3FC01213046FEF753FC0122AB
:103CE00040F225513046FEF7B0FC26208DF8140036
:103CF00002208DF815008DF8165001208DF8170060
:103D000005A8FDF7CDF941F61F416320FEF72CFA17
:103D10000648048000210648FEF7A7FA06B0BDE871
:103D2000F081000000440040000801404C050020E4
:103D300000140040D0E9013201699A60D0E9012302
:103D40005A604A68824201D182684A600022026158
:103D50000868401E08607047044908680A6880695E
:103D6000D26A0968C2F120028A6170476C0500209E
:103D700000F108014FF0FF32C0E90112C16001619A
:103D800000210160704700210161704730B50C6867
:103D9000621C02D000F1080202E0026904E01A4647
:103DA00053681D68A542FAD953684B6099608A60D0
:103DB000516008610168491C016030BD42684A6079
:103DC00093688B6093685960916008610168491C31
:103DD00001607047502080F31188BFF34F8FBFF30D
:103DE0006F8F09494868401C486001280AD107487C
:103DF000006810F0FF0F05D04FF4BD7204A10FA0B2
:103E0000FCF77CBA70470000D405002004ED00E008
:103E10002E2E5C4672656552544F535C706F7274FF
:103E200061626C655C525644535C41524D5F434D38
:103E3000335C706F72742E63000000004572726F05
:103E4000723A25732C25640D0A00000010B5084C49
:103E5000606828B940F2811206A111A0FCF74EFA61
:103E60006068401E606001D180F3118810BD0000C1
:103E7000D40500202E2E5C4672656552544F535C6B
:103E8000706F727461626C655C525644535C41524F
:103E90004D5F434D335C706F72742E630000000001
:103EA0004572726F723A25732C25640D0A0000006A
:103EB00070B500282AD0164DA0F108046068E968A2
:103EC000084205D14FF4A07212A11CA0FCF716FA0B
:103ED000206828B140F241120EA118A0FCF70EFA9A
:103EE0006068E968084211D02268002A0ED1884330
:103EF000606000F097FA606869680844686020466E
:103F0000FFF7C4F9BDE8704001F08AB870BD000049
:103F1000BC0500202E2E5C4672656552544F535CE2
:103F2000706F727461626C655C4D656D4D616E673A
:103F30005C686561705F342E630000004572726FCB
:103F4000723A25732C25640D0A00000006484FF4D0
:103F50007A710068B0FBF1F14FF0E020491E416139
:103F600007210161704700002C05002010B5FCF707
:103F70009FF9104C10280CD300F1E02090F8F003CA
:103F80002178884205D24FF42A720BA115A0FCF7C4
:103F9000B5F918480068A16800F4E060884207D9C4
:103FA000BDE810404FF42E7203A10EA0FCF7A6B995
:103FB00010BD0000D40500202E2E5C4672656552AF
:103FC000544F535C706F727461626C655C525644FE
:103FD000535C41524D5F434D335C706F72742E637E
:103FE000000000004572726F723A25732C25640D33
:103FF0000A0000000CED00E010B5074B002253F85A
:1040000032401CB1521C082AF9D310BD43F83210BB
:1040100003EBC201486010BDCC13002070B51546FB
:104020000E460446FFF7D6FE94F944100020491CC2
:1040300001D184F8440094F94510491C01D184F859
:104040004500FFF703FFA06B28B92A46314604F16B
:10405000240000F0D1F82046BDE87040FFF736BBE1
:1040600010B5040012D00E49096B29B140F2CF42BD
:104070000CA111A0FCF742F900F0D4F90021204670
:10408000FEF724FF00F0CCFF002807D10E494FF0C7
:1040900080500860BFF34F8FBFF36F8F10BD0000DB
:1040A0006C0500202E2E5C4672656552544F535CA1
:1040B0007461736B732E63004572726F723A25736D
:1040C0002C25640D0A00000004ED00E070B50446E4
:1040D000FFF780FE234D04B92C68201DFFF72AFE50
:1040E00058B9E06A204A00EB800152F8211021B94A
:1040F00001218140286988432861A06A18B104F130
:104100001800FFF717FE686A401C6862286884423E
:1041100007D1211D1548FFF751FE6868401C6860F3
:1041200007E0A868401EA8602046FFF70AF8FFF7DE
:1041300023FAFFF78BFE6869002812D028688442B2
:104140000FD1286B28B140F2654209A10DA0FCF700
:10415000D5F810494FF080500860BFF34F8FBFF380
:104160006F8F70BD6C0500200C140020C816002055
:104170002E2E5C4672656552544F535C7461736BAE
:10418000732E63004572726F723A25732C25640D8D
:104190000A00000004ED00E001490120C8617047F9
:1041A0006C05002070B50D46040005D140F60632BE
:1041B00007A10CA0FCF7A2F80E48016820461831B0
:1041C000FFF7E4FD2846BDE870400121FEF77EBE02
:1041D0002E2E5C4672656552544F535C7461736B4E
:1041E000732E63004572726F723A25732C25640D2D
:1041F0000A0000006C05002070B514460E4605004C
:1042000005D140F6313209A10DA0FCF777F810482E
:10421000016828461831FFF7D1FD0CB14FF0FF3689
:1042200021463046BDE87040FEF750BE2E2E5C465B
:1042300072656552544F535C7461736B732E6300E7
:104240004572726F723A25732C25640D0A000000C6
:104250006C0500202DE9F04117460E46050005D1FA
:1042600040F617320DA112A0FCF748F8144C206B51
:1042700028B940F61B3209A10DA0FCF73FF82168D0
:1042800046F000408861216828461831FFF796FD06
:104290003846BDE8F0410121FEF718BE2E2E5C46DF
:1042A00072656552544F535C7461736B732E630077
:1042B0004572726F723A25732C25640D0A00000056
:1042C0006C05002070B5040039D01D4DE06A2968E6
:1042D000C96A884233D2A069002804DB2868C06A12
:1042E000C0F12000A061E06A164E00EB8000616919
:1042F00006EB800081421FD1201DFFF71BFD01212D
:1043000050B9E06A00EB800256F8222022B92A69EF
:1043100001FA00F082432A612868C06AE0622A69D3
:1043200081401143296100EB800006EB8000211DD4
:10433000BDE87040FFF742BD2868C06AE06270BD0A
:104340006C0500200C14002010B5040005D140F6C7
:10435000C13205A109A0FBF7D1FF0C48016A216019
:10436000C068606010BD00002E2E5C46726565520C
:10437000544F535C7461736B732E63004572726F9C
:10438000723A25732C25640D0A0000006C0500208C
:104390001CB517480024CDE900402346822215A110
:1043A000164800F097FC012803D100F0E5FE012833
:1043B0000AD0401C1BD102B040F28472BDE810400C
:1043C0000FA114A0FBF79ABF502080F31188BFF310
:1043D0004F8FBFF36F8F06484FF0FF312C3881624B
:1043E00001214161C460BDE81C4000F057B91CBD0B
:1043F0009805002049444C4500000000A531000804
:104400002E2E5C4672656552544F535C7461736B1B
:10441000732E63004572726F723A25732C25640DFA
:104420000A0000000248016B491C0163704700004C
:104430006C05002070B5134D286B10B10120E861A8
:1044400070BD0020E86128690F4EB0FA80F0C0F11D
:104450001F0000EB800456F8240028B940F6F6222D
:104460000AA10FA0FBF74AFF06EB840000F1080247
:10447000416849684160914201D149684160C8681A
:10448000286070BD6C0500200C1400202E2E5C46A8
:1044900072656552544F535C7461736B732E630085
:1044A0004572726F723A25732C25640D0A00000064
:1044B00010B51C20FFF746F9040004D0002020604E
:1044C000201DFFF755FC204610BD00002DE9F041EE
:1044D00000258846040005D140F21D221CA123A01E
:1044E000FBF70CFF5FEA186005D040F21E2218A10E
:1044F0001EA0FBF703FF261D04F10C07FFF792FF38
:104500002168F06841EA0801216017E0D0E900164F
:1045100001F07F425301236821F07F4102D40B4216
:1045200003D10AE031EA030307D1D20100D50D43DC
:10453000216841F0007100F027FD3046B842E5D116
:104540002068A843206000F06BFD2068BDE8F08182
:104550002E2E5C4672656552544F535C6576656ECF
:10456000745F67726F7570732E6300004572726FAF
:10457000723A25732C25640D0A0000002DE9F047DE
:10458000089F9A4691460D4604004FF0000605D15B
:1045900040F24D1235A13CA0FBF7B0FE280E05D02D
:1045A0004FF4A77231A138A0FBF7A8FE2DB940F255
:1045B0004F122EA134A0FBF7A1FE00F0B7FB30B9DB
:1045C0002FB14FF4A97229A12FA0FBF797FEFFF797
:1045D00029FFD4F80080524629464046FFF758F894
:1045E00040B100274646B9F1000F15D02068A84316
:1045F000206011E0AFB1B9F1000F01D04FF080762B
:10460000BAF1000F01D046F0806645EA06013A464D
:10461000201DFFF71FFE002600F002FD1FB310B1A2
:1046200009E04646F8E71C494FF080500860BFF3A8
:104630004F8FBFF36F8FFFF78FFB0646800110D4BB
:10464000FFF7C8FB2668524629463046FFF720F898
:1046500028B1B9F1000F02D02068A8432060FFF70D
:10466000F5FB26F07F463046BDE8F0872E2E5C46EF
:1046700072656552544F535C6576656E745F677200
:104680006F7570732E6300004572726F723A2573F6
:104690002C25640D0A00000004ED00E01CB51A4949
:1046A00008780190FF20087008788DF800009DF8C8
:1046B0000000164A00F0500010700720906007E0DC
:1046C0009068401E90609DF8000040008DF800004A
:1046D0009DF800000006F3D4107A000200F4E060B8
:1046E0009060019808700A48016841F47001016007
:1046F000016841F070410160FFF728FC0020506024
:10470000FBF7A0FD00201CBD00E400E0D405002064
:1047100020ED00E010B5502080F31188BFF34F8FDB
:10472000BFF36F8F00F016FB18B104494FF08050B3
:104730000860002080F3118810BD000004ED00E047
:104740002DE9F04117460E46050005D14FF4C4721D
:1047500010A115A0FBF7D2FDBEB105FB06F0543049
:10476000FEF7F0FF04000ED004F154007EB120608B
:10477000C4E90F562046012100F0E0F884F850709B
:1047800000212046A164BDE8F0810020E7E7246015
:10479000EEE700002E2E5C4672656552544F535C66
:1047A00071756575652E63004572726F723A257377
:1047B0002C25640D0A0000002DE9FF4F83B09B46B5
:1047C0008A4604004FF0000605D140F2DC4251A1B8
:1047D00055A0FBF793FDBAF1000F07D1206C28B16B
:1047E00040F2DD424BA150A0FBF788FD00F09EFA9D
:1047F00038B9059828B14FF49C6246A14AA0FBF74E
:104800007DFD4FF000094FF08057DFF82C81FFF756
:10481000E1FAA56B45B351462046E668FEF748FC31
:10482000BBF1000F13D0E660606A50B104F12400C0
:1048300000F05EFB28B1C8F80070BFF34F8FBFF3E4
:104840006F8FFFF703FB012007B0BDE8F08F6D1EEF
:10485000A563206810B9FEF7FFFF6060206900289B
:10486000EFD004F11000E3E7059808B11EB106E0AF
:10487000FFF7ECFA27E06846FFF766FD0126FFF731
:10488000E5FAFFF7CFFDFFF7A5FA94F94400401CC5
:1048900001D184F8449094F94500401C01D184F87A
:1048A0004590FFF7D3FA05A9684600F0CFF9002834
:1048B00020460AD0FEF70AFF00F0B2FB2046FEF7C2
:1048C00027FD0028A3D00020BEE7FEF721FDD8B1C8
:1048D000206830B9FFF77EFA6068FFF7F3FCFFF756
:1048E000B5FA04F124000599FFF75CFC2046FEF7B9
:1048F000EDFE00F095FB002889D1C8F80070BFF3E9
:104900004F8FBFF36F8F82E72046FEF7DFFE00F088
:1049100087FB7CE72E2E5C4672656552544F535CD4
:1049200071756575652E63004572726F723A2573F5
:104930002C25640D0A00000004ED00E070B50D4662
:10494000040005D140F21B121CA121A0FBF7D6FCEC
:10495000FFF740FAD4E90F20216802FB00116160E3
:104960000021A1632168A1600A46D4E90F01401E1D
:1049700000FB0121E16021464FF0FF3001F8440FB8
:10498000487004F110004DB1FFF7F2F904F1240072
:10499000FFF7EEF9FFF75AFA012070BD21690029EF
:1049A000F8D000F0A5FA0028F4D00D494FF080505F
:1049B0000860BFF34F8FBFF36F8FEBE72E2E5C467F
:1049C00072656552544F535C71756575652E630051
:1049D0004572726F723A25732C25640D0A0000002F
:1049E00004ED00E02DE9FF4F83B099468B460400AB
:1049F0004FF0000605D140F2D92252A156A0FBF794
:104A00007DFCBBF1000F07D1206C28B140F2DA2207
:104A10004CA151A0FBF772FCB9F1020F08D1E06B79
:104A2000012805D040F2DB2246A14BA0FBF766FC33
:104A300000F07CF938B9059828B140F2DE2241A196
:104A400045A0FBF75BFC4FF0000A4FF08057DFF802
:104A50001881FFF7BFF9A06BE16B884206D3B9F16B
:104A6000020F03D0059800B316B325E04A46594615
:104A70002046FEF730FBA16C21B149462046FEF7E7
:104A800055FC05E0616A19B104F1240000F030FA28
:104A900028B1C8F80070BFF34F8FBFF36F8FFFF7D7
:104AA000D5F9012007B0BDE8F08FFFF7CFF921E07D
:104AB0006846FFF749FC0126FFF7C8F9FFF7B2FC8B
:104AC000FFF788F994F94400401C01D184F844A010
:104AD00094F94500401C01D184F845A0FFF7B6F9D0
:104AE00005A9684600F0B2F830B12046FEF7EEFDA9
:104AF00000F096FA0020D5E7FFF76CF9A06BE16BA8
:104B0000884201D1012500E00025FFF79FF995B10A
:104B100004F110000599FFF745FB2046FEF7D6FD8E
:104B200000F07EFA002894D1C8F80070BFF34F8FD0
:104B3000BFF36F8F8DE72046FEF7C8FD00F070FAD7
:104B400087E700002E2E5C4672656552544F535C19
:104B500071756575652E63004572726F723A2573C3
:104B60002C25640D0A00000004ED00E02DE9F0475B
:104B7000984615468946040005D140F29F322AA185
:104B80002EA0FBF7BBFBB9F1000F07D1206C28B1B9
:104B90004FF4687224A129A0FBF7B0FBB8F1020F13
:104BA00008D1E06B012805D040F2A1321EA123A05C
:104BB000FBF7A4FBFFF7DAF95020EFF3118780F33E
:104BC0001188BFF34F8FBFF36F8FA06BE16B8842EB
:104BD00007D3B8F1020F04D0002087F31188BDE895
:104BE000F08794F94560424649462046FEF773FA3D
:104BF000701C04D0761C84F845600120EDE7A06CA1
:104C0000012620B141462046FEF790FB06E0606A8F
:104C10000028F2D004F1240000F06AF90028ECD05A
:104C2000002DEAD02E60E8E72E2E5C4672656552B4
:104C3000544F535C71756575652E63004572726FD4
:104C4000723A25732C25640D0A00000070B50D46DC
:104C5000040005D140F6CB3214A119A0FBF74EFB9E
:104C60002DB940F6CC3211A115A0FBF747FBFFF799
:104C7000B1F8174AD06829684B1C0FD02368126A14
:104C8000934202D0626882420AD96268801A8842DE
:104C900006D2081A28602046FFF756FB002400E0E1
:104CA0000124FFF7D3F8204670BD00002E2E5C468D
:104CB00072656552544F535C7461736B732E63005D
:104CC0004572726F723A25732C25640D0A0000003C
:104CD0006C0500202DE9FF5F8346DDE90E879946CC
:104CE00016468A469000FEF72DFD05001AD05C207E
:104CF000FEF728FD040012D025630021CDE9024112
:104D0000CDE900874B46324651465846FEF75EFADB
:104D10002046FEF713F9012004B0BDE8F09F2846B5
:104D2000FFF7C6F84FF0FF30F6E70000054841698D
:104D300019B1006B18B100207047012070470220A4
:104D4000704700006C0500200148C06870470000F3
:104D50006C0500202DE9F0412D4F0026386B40B145
:104D6000B869401CB861F86900B101263046BDE859
:104D7000F081FD686D1CFD6011D1786B006828B171
:104D800040F6D91223A128A0FBF7B8FA786BB96BCB
:104D90007963B863386A401C3862FEF7EDFBB86A85
:104DA000DFF89480854209D3786B006880B1786B16
:104DB000C068C468606885420DD2B8623868C06A4D
:104DC00000EB800158F821000128CCD90126CAE760
:104DD0004FF0FF30F1E7201DFEF7ACFFA06A18B1DD
:104DE00004F11800FEF7A6FFE06A01213A6981404C
:104DF0001143396100EB800108EB8100211DFEF7B2
:104E0000DDFFE06A3968C96A8842CDD30126CBE765
:104E10006C0500202E2E5C4672656552544F535C23
:104E20007461736B732E63004572726F723A2573EF
:104E30002C25640D0A0000000C14002070B504003D
:104E40004FF000063CD01F4D2868844205D040F644
:104E5000C7621DA121A0FBF751FA206D28B940F6C9
:104E6000C96219A11DA0FBF749FA206D401E2065FB
:104E7000E26CE16A914223D010BB201DFEF75AFF7D
:104E80001A49012250B9E06A00EB800351F823303F
:104E900023B92B6902FA00F083432B61E06CE062D6
:104EA000C0F12000A061E06A2B6982401A432A61A8
:104EB00000EB800001EB8000211DFEF77FFF012643
:104EC000304670BD6C0500202E2E5C467265655222
:104ED000544F535C7461736B732E63004572726F31
:104EE000723A25732C25640D0A0000000C14002072
:104EF0002DE9F041C068C4682CB940F6613216A1B2
:104F00001AA0FBF7FBF904F118000746FEF712FFA1
:104F10001A4D286B012660B139461948FEF74EFF3D
:104F2000E06A2968C96A884213D90120EE61BDE8A8
:104F3000F081201DFEF7FEFEE06A2A6906FA00F104
:104F4000114329610F4900EB800001EB8000211D16
:104F5000E4E70020EBE700002E2E5C467265655208
:104F6000544F535C7461736B732E63004572726FA0
:104F7000723A25732C25640D0A0000006C05002090
:104F8000B41600200C14002070B51A4D06460C46CD
:104F9000286B28B940F6993217A11CA0FBF7AEF98F
:104FA00044F000403060F4682CB940F6A13212A100
:104FB00016A0FBF7A3F93046FEF7BCFE201DFEF756
:104FC000B9FEE06A01262A6906FA00F11143296157
:104FD000124900EB800001EB8000211DFEF7EEFE80
:104FE000E06A2968C96A884202D90120EE6170BD71
:104FF000002070BD6C0500202E2E5C467265655247
:10500000544F535C7461736B732E63004572726FFF
:10501000723A25732C25640D0A0000000C14002040
:105020002DE9F0472B4D00242746286B28B94FF473
:10503000FD6229A12DA0FBF761F9FEF7CBFE286BDD
:10504000401E2863286BE8BBA8682C490126C8B31A
:10505000A1F52A798846D8F80010E9B1D8F80C00F3
:10506000C46804F11800FEF765FE201DFEF762FE1D
:10507000E06A2A6906FA00F11143296100EB800118
:1050800009EB8100211DFEF799FEE06A2968C96AD3
:105090008842E0D3EE61DEE70CB1FEF76DFAAC6951
:1050A0003CB1FFF757FE00B1EE61641EF9D100205C
:1050B000A861E86930B11249012738070860BFF3D9
:1050C0004F8F00E001E0BFF36F8FFEF7BFFE384661
:1050D000BDE8F0876C0500202E2E5C467265655297
:1050E000544F535C7461736B732E63004572726F1F
:1050F000723A25732C25640D0A000000B4160020B6
:1051000004ED00E02DE9F0470746994616460D46A6
:105110002C20DDF820A0FEF715FB040014D0B846C3
:105120004F46D1462DB94FF4C67209A10EA0FBF728
:10513000E5F8FDF76BFF04F11801C4F8008081E881
:10514000E002201DFEF71FFE2046BDE8F0870000AC
:105150002E2E5C4672656552544F535C74696D65C2
:1051600072732E63000000004572726F723A2573ED
:105170002C25640D0A0000001CB50024FDF746FF35
:105180000C48006868B10B491F20091DCDE90001DA
:1051900000234FF4827208A10948FFF79BFD040029
:1051A00005D140F2331207A10CA0FBF7A7F8204667
:1051B0001CBD0000A8050020546D722053766300CA
:1051C000A53600082E2E5C4672656552544F535C1E
:1051D00074696D6572732E63000000004572726F12
:1051E000723A25732C25640D0A0000002DE9FF4753
:1051F000DDF830A0994690460D4606004FF00007B6
:1052000005D14FF4D37212A117A0FBF777F81A4C0F
:10521000206880B1CDE900580296062D11DAFFF71B
:1052200085FD02284FF0000309D00022694620685E
:10523000FFF7D8FB074604B03846BDE8F087524672
:10524000F4E700234A466946FFF790FCF2E70000C6
:105250002E2E5C4672656552544F535C74696D65C1
:1052600072732E63000000004572726F723A2573EC
:105270002C25640D0A000000A80500201CB501249F
:105280001448CDE900040021102380220846FCF7D1
:1052900079F9102305221E2119200094FCF714F936
:1052A000102306221E212D200094FCF70DF9102357
:1052B00007221E2141200094FCF706F91023082242
:1052C0001E2155200094FCF7FFF8BDE81C40FCF7B8
:1052D0005BB800002C00002000000000000000006F
:1052E0007D52000801000000000000009F2D000812
:1052F0000000000000000000002F00000000070078
:10530000070000147F147F1400242A7F2A120062F1
:10531000640813230036495522500000050300009D
:1053200000001C224100000041221C000014083E25
:1053300008140008083E0808000000A060000008EB
:10534000080808080000606000000020100804023F
:10535000003E5149453E0000427F400000426151FD
:105360004946002141454B31001814127F10002797
:1053700045454539003C4A4949300001710905035A
:1053800000364949493600064949291E000036368B
:1053900000000000563600000008142241000014EE
:1053A00014141414000041221408000201510906CB
:1053B00000324959513E007C1211127C007F49494C
:1053C0004936003E41414122007F4141221C007F7D
:1053D00049494941007F09090901003E4149497A8B
:1053E000007F0808087F0000417F41000020404105
:1053F0003F01007F08142241007F40404040007F71
:10540000020C027F007F0408107F003E4141413EB4
:10541000007F09090906003E4151215E007F0919FC
:1054200029460046494949310001017F0101003FF9
:105430004040403F001F2040201F003F4038403F79
:1054400000631408146300070870080700615149DD
:10545000454300007F41410000552A552A55000070
:1054600041417F00000402010204004040404040EE
:10547000000001020400002054545478007F484486
:10548000443800384444442000384444487F0038BD
:105490005454541800087E0901020018A4A4A47CE6
:1054A000007F080404780000447D400000408084B0
:1054B0007D00007F102844000000417F4000007CF8
:1054C00004180478007C0804047800384444443804
:1054D00000FC242424180018242418FC007C080450
:1054E000040800485454542000043F444020003C29
:1054F0004040207C001C2040201C003C4030403CB0
:10550000004428102844001CA0A0A07C004464543F
:105510004C44141414141414000000000000000083
:10552000000000000000FC0000000000020000007D
:10553000000C020C020000000000000090D0BCD063
:10554000BC900003000300001824FE448C000302FA
:10555000070201001824D8B04C80000300010201AA
:10556000C038E438E000010202010202080600002F
:105570000000000000000000000000F8040200002D
:1055800000010204000204F800000004020100000F
:105590009060F86090000000010000002020FC20D6
:1055A00020000000010000000000000000000806CC
:1055B000000000002020202020000000000000004B
:1055C0000000000000000002000000000080601CDD
:1055D0000200040300000000F8040404F8000102C3
:1055E000020201000008FC000000000203020000AB
:1055F0001884442418000302020202000804242430
:10560000D80001020202010040B088FC80000000C6
:10561000000302003C242424C40001020202010011
:10562000F824242CC0000102020201000C04E41C36
:105630000400000003000000D8242424D800010244
:105640000202010038444444F80000030202010051
:105650000000100000000000020000000000200018
:105660000000000006000000002050880402000036
:105670000000010290909090900000000000000057
:105680000002048850200002010000001804C42415
:105690001800000002000000F804E494F800010281
:1056A0000202020000E09CF08000020300000302FE
:1056B00004FC2424D800020302020100F8040404BC
:1056C0000C0001020202010004FC0404F8000203C1
:1056D0000202010004FC24740C0002030202030015
:1056E00004FC24740C00020302000000F0080444CF
:1056F000CC4000010202010004FC2020FC04020353
:10570000000003020404FC0404000202030202007D
:10571000000404FC040406040403000004FC24D078
:105720000C0402030200030204FC04000000020354
:1057300002020203FC3CC03CFC0003000300030027
:1057400004FC30C4FC04020302000300F804040457
:10575000F80001020202010004FC242418000203E4
:1057600002000000F8848404F8000102020705002A
:1057700004FC246498000203020003021824244459
:105780008C000302020201000C04FC040C00000265
:105790000302000004FC0000FC04000102020100FE
:1057A000047C80E01C040000030000001CE03CE0DE
:1057B0001C00000300030000049C609C0400020322
:1057C00000030200041CE01C0400000203020000AD
:1057D0000C84641C04000203020203000000FE02A9
:1057E0000200000007040400000E30C000000000AA
:1057F00000010200000202FE000000040407000095
:10580000000402040000000000000000000000008E
:105810000000080808080808000002000000000056
:10582000000000000040A0A0C0000001020203022E
:1058300004FC2020C00000030202010000C0202060
:10584000600000010202020000C02024FC000001F0
:105850000202030200C0A0A0C00000010202020078
:105860000020F82424040002030202000040A0A04B
:10587000602000070A0A0A0404FC2020C00002037A
:10588000020003020020E400000000020302000006
:10589000000020E4000008080807000004FC80E085
:1058A00020200203020003020404FC0000000202A4
:1058B00003020200E020E020C00003000300030018
:1058C00020E02020C00002030200030200C02020CC
:1058D000C00000010202010020E02020C000080FEB
:1058E0000A02010000C02020E0000001020A0F08A7
:1058F00020E0402020000203020000000060A0A081
:1059000020000002020203000020F8200000000036
:105910000102020020E00020E00000010202030278
:1059200020E0208060200000030100006080E08013
:10593000600000030003000020608060200002037C
:105940000003020020E0208060200808070100001A
:105950000020A0602000000203020200000020DE00
:105960000200000000070400000000FF000000002B
:10597000000F00000002DE2000000004070000000D
:105980000201020404020000000000000000000008
:10599000000000000000000000000000000000F80F
:1059A00000000000000000333000000000100C0672
:1059B000100C0600000000000000000040C078400D
:1059C000C0784000043F04043F040400007088FCD9
:1059D00008300000001820FF211E0000F008F00031
:1059E000E018000000211C031E211E0000F00888A2
:1059F000700000001E2123241927211010160E000C
:105A0000000000000000000000000000000000E0B6
:105A100018040200000000071820400000020418CB
:105A2000E00000000040201807000000404080F027
:105A3000804040000202010F01020200000000F05D
:105A4000000000000101011F010101000000000031
:105A50000000000080B070000000000000000000A6
:105A6000000000000001010101010101000000002F
:105A700000000000003030000000000000000000C6
:105A800080601804006018060100000000E01008A3
:105A90000810E000000F102020100F00001010F878
:105AA000000000000020203F2020000000700808B7
:105AB0000888700000302824222130000030088837
:105AC000884830000018202020110E000000C0205F
:105AD00010F8000000070424243F240000F8088880
